:020000040800F2
:1000000070110020A90100088309000849090008AF
:10001000810900086D080008D910000800000000E0
:10002000000000000000000000000000FD0A0008C1
:100030006F08000800000000050A00085D0C0008B9
:10004000BF010008BF010008BF010008BF01000890
:10005000BF010008BF010008BF010008BF01000880
:10006000BF010008BF010008BF010008BF01000870
:10007000BF010008BF010008BF010008BF01000860
:10008000BF010008BF010008BF010008BF01000850
:10009000BF010008BF010008BF010008BF01000840
:1000A000BF010008BF010008BF010008BF01000830
:1000B000BF010008B10C0008450D0008BF01000891
:1000C000BF010008BF010008BF010008BF01000810
:1000D000BF010008BD0E0008210F0008BF01000885
:1000E000BF010008BF010008BF01000800F002F8CE
:1000F00000F04BF80AA090E8000C82448344AAF177
:100100000107DA4501D100F040F8AFF2090EBAE874
:100110000F0013F0010F18BFFB1A43F0010318473B
:10012000F812000018130000103A24BF78C878C1F4
:10013000FAD8520724BF30C830C144BF04680C60ED
:10014000704700000023002400250026103A28BF35
:1001500078C1FBD8520728BF30C148BF0B60704739
:10016000642900F0BD80732900F0ED810020704704
:100170001FB500F023FB04000020002101F032F93C
:10018000401C60601FBD10B510BD00F0F2FA1146B2
:10019000FFF7EEFF00F0D8FF00F022FB03B4FFF7FB
:1001A000F2FF03BC00F099FF08480047FEE7FEE7B6
:1001B000FEE7FEE7FEE7FEE7FEE7FEE7FEE7FEE717
:1001C00003480449044A054B70470000ED0000084D
:1001D0007005002070110020700D0020700D0020AF
:1001E000704700000FB4044910B503AA029800F04C
:1001F000AFF910BC5DF814FB140000200FB41CB55F
:10020000074B06AA7B4469460090059800F071F9F7
:100210000020694600F080F91CBC5DF814FB00006A
:10022000110300002DE9F0410E4604460020206233
:100230002046E168884730B3252805D0D4E901215C
:100240009047206A401CF2E7E16820460027884773
:10025000050018D0A5F14100192802D820354FF427
:1002600000673246294620462760FFF779FF40B1F4
:10027000012804D0F61D26F007060836D8E7361DFB
:10028000D6E72846DAE7206ABDE8F08170B50C466B
:100290000546012A05D02878800600D5EA690023A2
:1002A00002E0012305E05B1C934202D2E05C0028DF
:1002B000F9D1A869E618C01AA861286A184428620A
:1002C0002846AFF3008004E0D5E9012114F8010BC2
:1002D0009047B442F8D32846AFF3008070BD0000C9
:1002E0002DE9F0410646002410687529314616A50F
:1002F00010D0AFF30080002802DA404213A507E0D7
:1003000031688A0701D512A502E0490704D511A575
:10031000012401E0AFF3008000210A2206F1240746
:1003200009E0B0FBF2FCB0FBF2F302FB1C00303042
:1003300078541846491C0028F3D123462A463046F3
:10034000BDE8F04100F076B8000000002D0000008C
:100350002B0000002000000070B5064600F066F893
:100360000468054630460A22002100F003F92C609B
:1003700070BD0000014A00F035B9000048000020BF
:1003800040EA0103024630B59B0710D14FF001341B
:1003900000E008C208C91D1B9D4315EAC41FF8D020
:1003A00013F0FF0102F8011B0DD01B0AF8E711F84A
:1003B000013B002B02F8013B05D011F8013B002B5B
:1003C00002F8013BF3D130BD421E12F8013F002B71
:1003D000FBD111F8013B002B02F8013BF9D170472A
:1003E0004FF000020429C0F0128010F0030C00F05E
:1003F0001D81CCF1040CBCF1020F18BF00F8012BD9
:10040000A8BF20F8022BA1EB0C0100F00FB95FEAA6
:10041000C17C24BF00F8012B00F8012B48BF00F875
:10042000012B70477047704770477047004870470E
:100430000C0500202DE9F0470D46994692460446EA
:1004400000F124080168880604D5E06921F0100154
:10045000216000E00120A84201DD471B00E00027E9
:10046000A1697A1902EB0900081AA0612078C00678
:1004700002D42046AFF30080002608E0D4E9012131
:100480001AF806009047206A401C761C20624E45F0
:10049000F4DB2078C0060AD52046AFF3008006E0E2
:1004A000D4E9012130209047206A401C2062381E88
:1004B000A7F10107F4DC07E0D4E9012118F80500F1
:1004C0009047206A401C2062281EA5F10105F3DC3C
:1004D0002046AFF300802078000602D50220BDE858
:1004E000F0870120FBE7000001694A1C02610878DF
:1004F000704700B58FB0CDE9013100210591054964
:100500007944CDE9031011466846FFF78BFE0FB022
:1005100000BD0000E5FFFFFF0A6802F8010B0A605A
:10052000704710B5436913B1AFF3008001E0FFF7E6
:10053000ADFE012010BD127800F124010A700022E6
:100540004A700122EDE711684FF0FF32E9E7000041
:10055000074B70B50D467B44FFF7CBFF044628469A
:1005600000F0E5F810B14FF0FF3070BD204670BDCF
:10057000D70B00002DE9F04791460F468046044610
:10058000002614F8015B2DB100F07AF80068405D98
:10059000C007F6D12B2D02D02D2D18D0641E4A464F
:1005A0003946204600F074F827B13968A14201D1DC
:1005B000C7F800804FF0020471050BD540420028B7
:1005C00003DDFFF733FF0460A007BDE8F08746F4C2
:1005D0008066E4E70028F8DAFFF728FF04606FF090
:1005E0000040F2E72DE9F04115460E46040002D125
:1005F0002C6804B90BA4204600F0ADF80444207820
:1006000070B127463146384600F095F8044420780A
:1006100010B1002004F8010B38462C60BDE8F081D1
:100620000027F9E7000000004FF0000200B5134674
:1006300094469646203922BFA0E80C50A0E80C5002
:10064000B1F12001BFF4F7AF090728BFA0E80C50B3
:1006500048BF0CC05DF804EB890028BF40F8042BAC
:1006600008BF704748BF20F8022B11F0804F18BF19
:1006700000F8012B70470000004870470C0500206F
:1006800010B500F09BF8001D10BD00BF590D000013
:100690002DE9F05F824615468B4600270AF10104DA
:1006A000B9460078302801D09DB113E014F8010B51
:1006B0000127782803D0582801D045B10AE00DB1B0
:1006C000102D07D1002714F8010B102502E0082592
:1006D00000E00A250026B0460EE005FB080005FBF9
:1006E00006F101271FFA80F801EB1046B6F5803FAE
:1006F00000D3B94614F8010B294600F063F800282E
:10070000EBDABBF1000F05D00FB1641E00E05446D8
:10071000CBF80040B9F1000F06D0FFF787FE0221A9
:100720000160C81EBDE8F09F48EA0640FAE7007B7A
:1007300000F08000704730B503461D781DB10A46B1
:1007400003E0AC4201D1181A30BD12F8014B002C65
:10075000F7D15B1CF1E730B503461D783DB10A4681
:1007600012F8014B1CB1AC42FAD15B1CF5E7181A28
:1007700030BD7546FFF780FFAE460500694653461B
:1007800020F00700854618B020B5FFF719FDBDE839
:1007900020404FF000064FF000074FF000084FF0E8
:1007A000000B21F00701AC46ACE8C009ACE8C00979
:1007B000ACE8C009ACE8C0098D46704700487047F6
:1007C0002C0500203A2800D2303820F02002412A9F
:1007D00001D3A2F13700884201D34FF0FF307047B8
:1007E0000446AFF300802046FFF7D8FC4FF0013CF1
:1007F00050F8042B51F8043B9A4221D1A2EB0C0390
:10080000934313EACC1317D150F8042B51F8043B4F
:100810009A4215D1A2EB0C03934313EACC130BD1EC
:1008200050F8042B51F8043B9A4209D1A2EB0C0377
:10083000934313EACC13DBD04FF00000704700BFA6
:10084000D01A01BAB1FA81F101F0180122FA01F0CF
:10085000CB40C1F12001DBB2C0B2C01A2CFA01F3C7
:10086000D11A914311EAC311E6D17047FEE77047F0
:10087000F0B5CC78002204F00F03E40601D58C78A3
:1008800023430C784FF00F0C14F0FF0F4FF0010EC4
:100890001BD005680E880EFA02F42640A64210D13D
:1008A00096000CFA06F725EA070703FA06F5CE7854
:1008B0003D43282E02D0482E02D002E0446100E0E1
:1008C0000461521C082AE5D305600A88FF2A1CD956
:1008D0004468002202F108060EFA06F50E882E4042
:1008E000AE420ED196000CFA06F7BC4303FA06F7A7
:1008F000CE783C43282E00D14561CE78482E00D1D9
:100900000561521C082AE5D34460F0BD416170477F
:1009100010B50A4C207800060CD509A10948FFF74C
:1009200029FD07A10020FFF725FDFFF715FD002198
:10093000217010BD4FF0FF3010BD000018000020E6
:100940002C000000CC040020FEE7000038B5012197
:10095000042000F07DF88020ADF8000010208DF814
:1009600003000320054C8DF8020069462046FFF77E
:100970007FFF80212046FFF7C9FF38BD00080140F6
:10098000FEE770474FF4A06000F032B830B50F2397
:10099000C27801780125F2B1144A126801F1E02110
:1009A00002F4E062C2F5E062120AC2F10404D3402C
:1009B0004278A24084781C401443220181F800242C
:1009C000007800F01F018D404009800000F1E02018
:1009D000C0F8005130BD01F01F008540480980007B
:1009E00000F1E020C0F8805130BD00000CED00E0C7
:1009F0000249084302490860704700000000FA05F8
:100A00000CED00E0704710B541F61F4421464FF44D
:100A1000FA7000F0B3F921460A2000F061F94FF4B2
:100A2000E134204600F03CFC204600F089FCBDE8A3
:100A30001040FFF78BBF0000044A0029D16901D0A4
:100A4000014300E08143D161704700000010024083
:100A5000044A0029916901D0014300E0814391617A
:100A6000704700000010024030B5204A5168204B0A
:100A700011F00C0103D0042901D0082901D0036032
:100A800012E05168536801F470114FF0020413F43E
:100A9000803F04EB914102D053689B0301D5154B75
:100AA00000E0134B5943016051680F2303EA111111
:100AB000114B5C5C0168E14041605468072505EA20
:100AC00014241C5D21FA04F48460546805EAD424DB
:100AD0001B5DD940C1605268032303EA9232064B82
:100AE0001B1F9A5CB1FBF2F1016130BD00100240A6
:100AF00000127A0000093D00380000207047000015
:100B000001460148FFF76EBB1014000870B5A8B08D
:100B10000C460546164618A16846FFF731FC2A46E2
:100B200017A120A8FFF76AFB20A96846FFF74CFC35
:100B300014A16846FFF748FC224611A120A8FFF740
:100B40005DFB20A96846FFF73FFC10A16846FFF750
:100B50003BFC32460AA120A8FFF750FB20A96846BB
:100B6000FFF732FC0BA16846FFF72EFC6846FFF743
:100B7000C7FF28B070BD00007B2273223A2200001C
:100B800025640000222C2264223A2200222C2274A6
:100B9000223A2200227D0D0A000000000CB500223E
:100BA000264800920192016841F4803101604FF4BF
:100BB000A063016801F4003101910099491C009182
:100BC000019911B900999942F3D10168890333D58C
:100BD000012101911A490A6842F010020A600A686C
:100BE00022F003020A600A6842F002020A604168C9
:100BF000416041684160416841F480614160416801
:100C000021F47C114160416841F4E81141600168C0
:100C100041F08071016001688901FCD5416821F0D3
:100C200003014160416841F0020141604168C1F344
:100C300081010229FAD10CBD01920CBD00100240C5
:100C4000002002404FF0E0210428086903D020F082
:100C500004000861704740F00400FAE770470000A4
:100C60000F4810B5016841F00101016041680D4A6B
:100C70001140416001680C4A11400160016821F493
:100C800080210160416821F4FE0141604FF41F01A1
:100C90008160FFF783FF05494FF00060086010BDD9
:100CA000001002400000FFF8FFFFF6FE08ED00E034
:100CB00010B5094C0121204600F09DF800280AD00B
:100CC0000121204600F08AF804490868401C0860A9
:100CD000401C00D1086010BD000400400C00002042
:100CE0007FB50D46044601210220FFF7A5FE002036
:100CF000ADF80440ADF80050ADF80600ADF80200C4
:100D000069460E4800F08CF80D4C01221146204631
:100D100000F07DF81D218DF80C1003208DF80D00DA
:100D200001218DF80E108DF80F1003A8FFF72EFE8D
:100D30000121204600F055F87FBD0000000C004066
:100D40000004004010B50B4C0121204600F053F880
:100D500000280ED00121204600F040F806494878CE
:100D6000401CC0B24870142803D1002048700120F4
:100D7000087010BD00080040100000207FB50D462F
:100D8000044601210420FFF757FEADF80440ADF8FA
:100D900000500024104DADF80640ADF80240694601
:100DA000284600F03DF801224121284600F02FF8A6
:100DB0001E218DF80C1003208DF80D008DF80E40CB
:100DC00001208DF80F0003A8FFF7E0FD0121284660
:100DD00000F007F87FBD000000080040C943018211
:100DE00070470029018802D041F0010101E021F0A3
:100DF00001010180704702460020138A92890B424C
:100E000002EA010202D0002A00D001207047002A25
:100E1000828901D00A4300E08A4382817047000042
:100E200030B502881B4C1C4DA0420DD0A8420BD0FF
:100E3000B0F1804F08D0194B984205D0184B98421A
:100E400002D0184B984203D122F070034A881A430B
:100E5000154B984206D0154B984203D022F44073AC
:100E6000CA881A4302808A8882850A880285A0423D
:100E70000AD0A84208D00E4A904205D00D4A9042AE
:100E800002D00D4A904201D1097A01860121818266
:100E900030BD0000002C014000340140000400403F
:100EA00000080040000C004000100040001400400A
:100EB00000400140004401400048014070B5154C1D
:100EC00040F22551204600F071F800280ED020464F
:100ED00000F0FAF8104AC1B21088030406D44404A2
:100EE0004FF0000306D50A2901D0138070BD40F4ED
:100EF00000400DE00D2909D0C0F30D04074D401C42
:100F000080B2295510807F28EFD870BD40F4804012
:100F1000108070BD00380140120000204C040020F9
:100F200070B51A4C40F22551204600F03FF80028D9
:100F300014D0204600F0C8F8C1B2154A4D290ED091
:100F4000507801280AD11078030607D444064FF0E0
:100F500000030BD50A2905D05370137070BD012012
:100F60005070F0E7537040F080000DE00D2909D07B
:100F700000F03F04074D401CC0B2295510703F28B7
:100F8000EAD870BD40F04000107070BD00440040D1
:100F900018000020CC0400200029818902D041F4EF
:100FA000005101E021F400518181704770B501F0DA
:100FB0001F0501260024C1F3421306FA05F2012B96
:100FC0000FD0022B0FD0838A4FEA112100881342E1
:100FD00006FA01F600EA060001D000B1012420461D
:100FE00070BD8389F0E7038AEEE710B5C1F34213C1
:100FF00001F01F040121A140012B07D0022B07D0D3
:101000001430002A026805D00A4304E00C30F8E7E7
:101010001030F6E78A43026010BD000030B5044688
:10102000008A85B00D464CF6FF710840E9880143FF
:101030002182A0894EF6F3110840A9882A8911431C
:101040006A8902431143A181A08A4FF6FF410840FB
:10105000A9890143A1826846FFF706FD1948844229
:1010600001D1039800E00298A189090400EBC001B6
:1010700001EB0010296801D5490000E08900B0FBB0
:10108000F1F06422B0FBF2F109010B096FF01805D1
:101090006B4300EB8300A3891D044FF0320306D598
:1010A00003EBC000B0FBF2F000F0070005E003EB3B
:1010B0000010B0FBF2F000F00F000843208105B0F3
:1010C00030BD0000003801408088C0F30800704740
:1010D000C1F3080181807047FEE7704710B50446F0
:1010E0006FF00400FFF7AEFD0649E00800EB400298
:1010F0000870C2EBC0104FF6FF7202EAC0004880D1
:1011000010BD0000300000200849498848434FF0D6
:10111000E021486100238B61012008610869C20752
:1011200001D0C003FAD50B618B61704730000020FD
:1011300004490A885206FCD5024AC1B2121D118028
:101140007047000000380140FFF78AFD4820FFF794
:10115000C5FFFFF717FCFFF756FC00F087F80127E3
:10116000DFF8BC802F4E00252F4CDFF8C0A0DFF841
:10117000C090FFF7CDFB60600028FAD0411C3ED044
:10118000C82801DA617859B320780028F1D0657059
:101190006088142801D91420608081B2204800F0B2
:1011A0004DF8D8F80010C82916DCC6F89C71A1606B
:1011B00031B1052904DD0120D9F80020FFF7A6FC94
:1011C0004FF4FA70FFF7A0FF1A48402105701A4843
:1011D000FFF706F9C6F89C51658025706560C8E781
:1011E0006188642905D2277048F82100491C618074
:1011F000BFE767704FF44870FFF786FFB9E79AF8CA
:1012000000100129B5D18AF8005020780128B0D00B
:1012100000210846D9F80020FFF778FCA9E7000074
:101220004C0000200000214200000020100000209F
:101230000C00002018000020CC040020F0B500268F
:101240004F1E0FE000220AE000EB820550F822302A
:101250006C68A34202DD40F822406B60521CBA4227
:10126000F2DB761C8E42EDDBF0BD000010B50B4CBE
:1012700014212046FFF72CFF4FF47A70FFF744FF4C
:1012800071212046FFF724FF6420FFF73DFF204631
:10129000BDE810405021FFF71BBF00000044004094
:1012A00070B5054686B0012144F20400FFF7D0FB7B
:1012B0004FF40070ADF8100003248DF81240182090
:1012C0001D4E8DF8130004A93046FFF7D1FA3015F2
:1012D000ADF8100004208DF8130004A93046FFF784
:1012E000C7FA25208DF8140001218DF815108DF80E
:1012F00016408DF8171005A8FFF748FB0020ADF841
:101300000400ADF80600ADF80800ADF80C000C20A4
:101310000A4CADF80A00009569462046FFF77EFEAC
:10132000012240F225512046FFF75FFE01212046B1
:10133000FFF732FE06B070BD0008014000380140E2
:1013400070B5054686B001210420FFF781FB01211D
:101350004804FFF771FB0424ADF8104003208DF81A
:10136000120018201D4E8DF8130004A93046FFF717
:101370007FFA0820ADF810008DF8134004A930461C
:10138000FFF776FA26208DF8140001218DF815104C
:1013900002208DF816008DF8171005A8FFF7F6FA51
:1013A0000020ADF80400ADF80600ADF80800ADF877
:1013B0000C000C200A4CADF80A0000956946204646
:1013C000FFF72CFE012240F225512046FFF70DFECB
:1013D00001212046FFF7E0FD06B070BD0008014086
:1013E0000044004010B500290AD00878002807D032
:1013F00005487844FFF7FAF9002801D0002010BD15
:101400000248784410BD0000460000003E00000085
:1014100025730D0A00000000481500080000002098
:101420004C00000028010008941500084C00002022
:1014300024110000440100081001000043000000D6
:10144000F8FFFFFF004040404040404040404141E5
:101450004141414040404040404040404040404089
:101460004040404040050202020202020202020223
:101470000202020202202020202020202020200220
:1014800002020202020290909090909010101010B0
:10149000101010101010101010101010101010104C
:1014A00002020202020288888888888808080808E0
:1014B00008080808080808080808080808080808AC
:1014C00002020202400000000000000000000000D4
:1014D000000000000000000000000000000000000C
:1014E00000000000000000000000000000000000FC
:1014F00000000000000000000000000000000000EC
:1015000000000000000000000000000000000000DB
:1015100000000000000000000000000000000000CB
:1015200000000000000000000000000000000000BB
:1015300000000000000000000000000000000000AB
:10154000000000000000000000000000000000009B
:10155000000000000000000000000000000000008B
:10156000000000000000000000000000000000007B
:101570000000000000000000000000000204060857
:101580000000000001020304010203040607080929
:041590000000000057
:04000005080001A945
:00000001FF
